:1000000019C018951895189518951895189518955C
:10001000189518951895706F6465782036384843A0
:1000200031322042444D203C6D7040647563682E2F
:10003000637A3E00F8948FED8DBF8CE087BB8FEF25
:1000400088BB929A8A9A8B9884E089B988E18AB9A8
:1000500083E080936F00552742E168D181E080936F
:10006000620080E080936100C29AC398EDD1C39A88
:10007000183030F1012F16FD08C017FD03C0F8D16C
:100080002ED2F2CFF5D130D2EFCF107E103E21F438
:10009000D0D1ABD1D3D1E8CF103C39F4CAD1D4D12F
:1000A000612FD2D1712FACD1DFCF103619F4B3D17B
:1000B000C5D1DACF103419F4BCD1B4D1D5CF4EC0EC
:1000C000113091F4C198B99AC098B89A3AE017D211
:1000D000B99830916200332309F4339510D2B19B63
:1000E000FECFC09AB898C0CF123019F4C198B99A0F
:1000F000BBCF133011F4B998B7CF143089F1153054
:10010000D9F4A2D1A12EA0D1B12E9ED1C12E9CD1C5
:10011000D12E08EE6AD1E62EF72E6C21C61639F4E0
:100120007D21D71621F4CE24C094DF24D09414E18D
:10013000E2D010E0E0D098CF163021F485D11093B2
:10014000600092CF173039F47FD1A12E7DD1B12E2E
:1001500014E0D1D089CF103009F486CFC29885CF72
:1001600073D1103019F417EC7FD17ECF113051F4D8
:1001700013E87AD104EE4FEF51E037D1172F74D145
:10018000A4D072CF1230F9F45FD1F12E52D1242FC6
:10019000352F002411242224332400E169D1A4D175
:1001A00001E0000E0027101E201E301E03E633D192
:1001B000C62ED72E839B19C00F2D047029F4D31699
:1001C000C20699F004C028C00316120671F012E0AE
:1001D0000F2D017079F40F2D0870F9F214E044D15D
:1001E0001C2D42D11D2D40D1D8CF12E80F2D027009
:1001F00009F01064E12E38D168D00E2D007441F062
:10020000102D32D1112D30D1122D2ED1132D2CD1F4
:100210000E2D007811F228CF133061F464D048F02D
:1002200008EEE3D00BD1510D401D3150C8F72150DD
:10023000B8F71ACF143011F507D110936F001430AE
:1002400089F05527103011F44EE910C0113011F427
:100250004EE40CC0123011F446E208C0133011F421
:1002600042E104C040917000509171005FD0ECD029
:1002700010936100E9D010936200F6CE153029F496
:10028000E3D018BB1FEF17BBEFCE163079F42BD09D
:1002900060F008ECD9D0612FD7D0712FB1D0510DBB
:1002A000401D3150B0F72150A0F7DECE173061F479
:1002B000CBD0BFD0409370005093710010916F006D
:1002C000141509F433D0D0CE49CF43E6042FA3D080
:1002D000B5D043954836D0F304EE4FEF56E085D0C5
:1002E000162FC2D00895A5D0AFD0212FADD0312F79
:1002F000315020400895612F626011D008EC4A2DE2
:100300005B2D6C2D7D2D7CD0612F636008D03AE091
:10031000F6D0612F626003D0612F01D0089500EC08
:100320004091600053EF762F6BD00895A42EB52E28
:10033000CC24AA0CBB1CCC1CAA0CBB1CCC1C0024BF
:1003400037E0A30EB01CC01C39E0932EE1D0A02CE6
:10035000B12CC22C03E5302E17E0412E20E0522EA6
:1003600036E033D060926B0002EE14E036E02DD020
:10037000639460926A0001E712E0222734E025D0FE
:100380006092690060926C0039E01FD060926D004D
:1003900033E01BD060926E00300E411E521E00E111
:1003A00017E220E036E911D0609263007092640099
:1003B00030E40BD0609265007092660030E205D0A8
:1003C00060926700709268000895932EA1D0001A81
:1003D000110A220A632C742C852C869477946794D6
:1003E000060C171C281CA4D0089542D0042F40D01E
:1003F000052F3ED074D042D0602F40D0702F08958A
:1004000037D0042F35D0052F33D0062F31D0072F0A
:100410002FD065D008952CD06CD030D0602F2ED046
:10042000702F089525D0042F23D0052F21D061D01F
:1004300008950AD0412F08D0512F0895162F14D0B7
:10044000172F12D00895929A8399FECF929883998C
:10045000FACF5F9BFCCF1CB1929A839BFECF08958D
:100460005F9BFECF1CB108955D9BFECF1CB9089524
:1004700088E0001F09D08A95E1F7089588E01BD035
:10048000001F8A95E1F70895D0906C00E0906D0010
:10049000F0906E00B89A20F0C098DA94F1F704C09A
:1004A000C098DA94F1F7C09AEA94F1F7C09AFA94F6
:1004B000F1F7B8980895D0906900E0906A00F09044
:1004C0006B008894B89AC098DA94F1F7B898EA94D7
:1004D000F1F7B0990894FA94F1F7C09A08958091D1
:1004E00063009091640010C0809165009091660057
:1004F0000BC0809167009091680006C003D0315016
:10050000E8F7089581EF98E081509040E8F708956A
:1005100000241124222438E0990C18F40A0C1B1C26
:100520002C1C3A9521F0000C111C221CF5CF0895CB
:10053000662477248824FF24F394330C441C551C30
:1005400028F0031414042504B8F7889457944794AA
:10055000379403141404250420F003181408250804
:100560006394FA9421F0660C771C881CEFCF0895F1
:00000001FF
